:020000040800F2
:10000000780B002091010008E11E00081D17000870
:10001000DD1E00089D050008D9230008000000002F
:10002000000000000000000000000000CD230008D8
:10003000A105000800000000E51E0008D12300080B
:10004000AB010008AB010008AB010008AB010008E0
:10005000AB010008AB010008AB010008AB010008D0
:10006000AB010008AB010008AB010008AB010008C0
:10007000AB010008AB010008AB010008AB010008B0
:10008000AB010008AB010008AB010008AB010008A0
:10009000AB010008AB010008AB010008AB01000890
:1000A000AB010008AB010008AB010008AB01000880
:1000B000AB010008AB01000800000000AB01000824
:1000C000AB0100080000000000000000AB010008C8
:1000D00000000000AB010008AB01000800000000B8
:1000E000AB010008AB010008AB01000800F002F80A
:1000F00000F03FF80AA090E8000C82448344AAF183
:100100000107DA4501D100F034F8AFF2090EBAE880
:100110000F0013F0010F18BFFB1A43F0010318473B
:100120005842000078420000103A24BF78C878C1D5
:10013000FAD8520724BF30C830C144BF04680C60ED
:10014000704700000023002400250026103A28BF35
:1001500078C1FBD8520728BF30C148BF0B60704739
:10016000642900F07D80002070471FB51FBD10B5C9
:1001700010BD00F0DDF91146FFF7F7FF02F0EEFACF
:1001800000F0FBF903B4FFF7F2FF03BC00F0FEF947
:100190000948804709480047FEE7FEE7FEE7FEE71B
:1001A000FEE7FEE7FEE7FEE7FEE7FEE70448054957
:1001B000054A064B70470000D5230008ED000008F3
:1001C00078050020780B00207807002078070020B1
:1001D0000FB41CB5074B06AA7B44694600900598EE
:1001E00000F053F90020694600F062F91CBC5DF88C
:1001F00014FB0000D50200002DE9F0410E46044634
:10020000002020622046E168884730B3252805D0C9
:10021000D4E901219047206A401CF2E7E1682046BA
:1002200000278847050018D0A5F14100192802D8F9
:1002300020354FF400673246294620462760FFF7F5
:100240008FFF40B1012804D0F61D26F007060836BE
:10025000D8E7361DD6E72846DAE7206ABDE8F08100
:100260002DE9F0410646002410687529314616A58F
:1002700010D0AFF30080002802DA404213A507E057
:1002800031688A0701D512A502E0490704D511A5F6
:10029000012401E0AFF3008000210A2206F12407C7
:1002A00009E0B0FBF2FCB0FBF2F302FB1C003030C3
:1002B00078541846491C0028F3D123462A46304674
:1002C000BDE8F04100F082B8000000002D00000001
:1002D0002B00000020000000032A40F2308010F0C4
:1002E000030C00F0158011F8013BBCF1020F6244D1
:1002F00098BF11F801CB00F8013B38BF11F8013B62
:10030000A2F1040298BF00F801CB38BF00F8013B0E
:1003100011F0030300F0D180083AC0F0088051F8D2
:10032000043B083A51F804CBA0E80810F5E7121D89
:100330005CBF51F8043B40F8043BAFF30080D207A8
:1003400024BF11F8013B11F801CB48BF11F8012B74
:1003500024BF00F8013B00F801CB48BF00F8012B97
:1003600070474FF0000200B5134694469646203978
:1003700022BFA0E80C50A0E80C50B1F12001BFF45E
:10038000F7AF090728BFA0E80C5048BF0CC05DF8C4
:1003900004EB890028BF40F8042B08BF704748BF12
:1003A00020F8022B11F0804F18BF00F8012B704786
:1003B00070477047704710B500F0B2F8006810BD84
:1003C00010B5044600F0ACF8046010BD2DE9F0470C
:1003D0000D4699469246044600F1240801688806B5
:1003E00004D5E06921F01001216000E00120A8425D
:1003F00001DD471B00E00027A1697A1902EB090023
:10040000081AA0612078C00602D42046AFF300800D
:10041000002608E0D4E901211AF806009047206A76
:10042000401C761C20624E45F4DB2078C0060AD5BD
:100430002046AFF3008006E0D4E901213020904748
:10044000206A401C2062381EA7F10107F4DC07E097
:10045000D4E9012118F805009047206A401C206269
:10046000281EA5F10105F3DC2046AFF300802078BB
:10047000000602D50220BDE8F0870120FBE700005E
:1004800001694A1C02610878704700B58FB0CDE958
:1004900001310021059105497944CDE90310114648
:1004A0006846FFF7A9FE0FB000BD0000E5FFFFFFA3
:1004B0000A6802F8010B0A60704710B5203AC0F0D4
:1004C0000B80B1E81850A0E81850B1E81850A0E827
:1004D0001850203ABFF4F5AF5FEA027C24BFB1E8C0
:1004E0001850A0E8185044BF18C918C0BDE8104003
:1004F0005FEA827C24BF51F8043B40F8043B08BF0C
:100500007047D20728BF31F8023B48BF11F8012BD2
:1005100028BF20F8023B48BF00F8012B70470000BD
:10052000004870471800002000487047180000205D
:100530007546FFF7F9FFAE4605006946534620F0C1
:100540000700854618B020B5FFF730FEBDE8204013
:100550004FF000064FF000074FF000084FF0000B7F
:10056000AC46ACE8C009ACE8C009ACE8C009ACE8EE
:10057000C00921F007018D46704710B50446AFF35E
:1005800000802046BDE81040FFF7FCBD014918205F
:10059000ABBEFEE72600020070470000FEE7000049
:1005A000704700002DE9F04F82B00E68002E00F079
:1005B000F98041F20002C4F20102032340F2004E2E
:1005C000904208BF02234FF6FF7CC4F2010E009355
:1005D00000240123C1F2100C4FF0000B4FF0000972
:1005E00050E000BF40F60042C4F20102009F90427A
:1005F00008BF012704F00C030F229A402AEA0202E6
:1006000007FA03F34FEA9B051A4346F82520D1F871
:1006100004A040F20C455FEACA22DEF8082054BF6D
:1006200022EA080242EA0802C4F20105CEF80820D4
:100630002A685FEA8A2354BF22EA080242EA0802D3
:100640002A605FEA8A33DEF8042054BF22EA0802F7
:1006500042EA08025FEACA33CEF80420DEF800203E
:100660004FF0010354BF22EA080242EA0802CEF822
:1006700000200E680BF1010B36FA0BF204F10404B2
:1006800000F0908003FA0BF816EA080FF1D04E68DC
:10069000664511DC122E55D8DFE806F0340A4448CE
:1006A000545454545454545454545454544C50006A
:1006B000D1F80C9046E000BF4FF6FF72C1F2210264
:1006C00096420FDC0022C1F2110296421AD000229B
:1006D000C1F21202964215D00022C1F221029642C6
:1006E00010D02FE00022C1F2220296420AD000224E
:1006F000C1F23102964205D00022C1F23202964286
:1007000020D100BF8A684AB1012A14BFC0F8148002
:10071000C0F810804FF0080914E000BF4FF0040942
:1007200010E000BFCA6802F108090BE04FF00009B1
:1007300008E000BFCA6802F1040903E0CA6802F1D8
:100740000C0900BF22460646BBF1080F24BF203A21
:10075000043637680F25954027EA050509FA02F2A5
:100760002A433260CA79D2067FF583AF41F218037B
:10077000C4F202031A68AEF57E7642F001021A60F6
:100780001A6802F001020192019A2BF0030256F856
:1007900002A040F60002C4F2010290427FF422AFB0
:1007A000002727E702B0BDE8F08F000040F2745048
:1007B000C2F200000068704770B5B8B3044690F804
:1007C0003D0028B9002084F83C00204600F0ECFBF6
:1007D000242084F83D002068016821F001010160B7
:1007E000016841F400410160016821F400410160A9
:1007F00000F090FD48F28041C0F21E0140F6001367
:10080000D4F804E088424FF00001C0F23D0348F202
:10081000A16C4FF0000238BF01219842C0F2010CD8
:1008200038BF0122E64538BF0A460AB1012070BD33
:100830004DF68361C4F21B31A0FB01122168950CB7
:100840004B684FF4967623F03F0343EA9243754397
:1008500044F6D3564B60C1F262060B6AA5FB0656FE
:10086000B50923F03F03E64538BF950C6A1C1A43CF
:100870000A62CA6948F2A0664CF6FF73C0F201062C
:10088000B64522EA03020BD801384FEA4E03B0FB0B
:10089000F3F001306FF31F30042898BF04201EE0EE
:1008A000A368013863B119230EFB03F3B0FBF3F027
:1008B00001306FF31F3078B100F5804008E000BFD1
:1008C0000EEB4E03B0FBF3F001306FF31F3028B195
:1008D00000F5004003E000BF012000E001201043CC
:1008E000C8610868D4E9072320F0C000104318430A
:1008F0000860886848F2FF3204F10C0690434CCE41
:1009000018431043A5698860C86820F0FF00304391
:100910002843C860086840F00100086000202021DA
:10092000206484F83D10206384F83E0070BD000010
:100930002DE9F04383B01E46174689460446FFF76B
:1009400035FF94F83D10202920D10546206800BFCE
:100950008169890716D5FFF729FF411B20681A29ED
:10096000F6D381698907F3D500202021206384F81C
:100970003D1084F83E00216C41F02001216484F890
:100980003C0003E094F83C10012903D1022003B09D
:10099000BDE8F083012184F83C100168C90703D148
:1009A000016841F001010160016840F2020821F490
:1009B00000610160212184F83D10102184F83E106F
:1009C0000021216467626685618DC0F2010821857E
:1009D000A8F10211E162E16A0A9E11F5803F18BF99
:1009E00001291DD1016841F48071016020464FF05A
:1009F000011100223346009500F0E2FF50B120685B
:100A00000068C00544BF4FF400702064012003B0AB
:100A1000BDE8F0832069B0F5804F07D1FE2015E0D6
:100A20000829DFD0216B1229DCD0DFE7062000EA9D
:100A3000D9102168F030086108F1060120463246DD
:100A40002B4601F0A7F80028E0D1FF20216800EA3A
:100A5000090008612046414632462B4601F09AF8CB
:100A60000028D3D10020029020684169029180695A
:100A70000290029806E000BF204631462A4600F068
:100A80003FFF18BB208D68B3204631462A4601F04F
:100A900039F9D8B9606A2168024612F8013B0B6146
:100AA0006262628D013A6285228D531E23854F69F1
:100AB0007F07E1D51B04DFD0437802300B61606211
:100AC000608D01386085901E2085D5E7206C042854
:100AD0009CD12068016841F400710160012003B0DD
:100AE000BDE8F0832068016841F4007101602020B6
:100AF00084F83D00002084F83E0084F83C0003B0F8
:100B0000BDE8F0832DE9F04F85B0044600209946FA
:100B100016460F460490FFF749FE94F83D10202931
:100B200027D10546206800BF816989071CD5FFF7DA
:100B30003DFE411B20681A29F6D381698907F3D548
:100B400000202021206384F83D1084F83E00206CB2
:100B500004F13C0A40F020002064022000218AF8C1
:100B6000001005B0BDE8F08FA2461AF83C1F01291D
:100B700004D1022005B0BDE8F08F00BF01228AF841
:100B800000200368DDE90F180E9ADB0703D1036824
:100B900043F001030360036823F400630360222031
:100BA00084F83D00402084F83E000020206462620A
:100BB0006185608D394620850020CFF6FF70E062A8
:100BC000204632464B46CDF80080019500F0A8FD46
:100BD00020B1012005B0BDE8F08F00BF208D0228B4
:100BE00010D0012824D0002838D10020039020689C
:100BF00041690391816903910399016841F400718E
:100C0000016037E02068016841F400610160EFF3A2
:100C1000108072B6002003902068416903918169B9
:100C200003910399016821F48061016062B621E0BB
:100C30002068016821F480610160EFF3108072B6D2
:100C40000020039020684169039181690391039911
:100C5000016841F40071016062B60BE02068016830
:100C600041F4806101600021039141690391806931
:100C700003900398208D002800F0CA80042740F2DA
:100C800010094BF2895BC0F20107C2F20009C1F200
:100C9000F84B232617E000BF204641462A4600F0C5
:100CA000E9FF002895D12068616A00690870606AD0
:100CB000218D01306062481E2085618D013961857A
:100CC000010400F0A58080B2032865D8022800F056
:100CD0007F800128E0D02046394600224346009517
:100CE00000F06EFE00287FF474AF2068016821F4E4
:100CF00080610160EFF3108072B62068616A00695C
:100D00000870606A218D0130013960622185618D32
:100D100001396185D9F80010C908A1FB0B12110A2D
:100D2000714304910499013904910499002900F058
:100D30007B8021684A6952071DD4049901390491C6
:100D40000499002970D021684A69520713D4049984
:100D5000013904910499002966D021684A69520733
:100D600009D4049901390491049900295CD02168BF
:100D70004A695207D6D50A6842F400720A600969C6
:100D80000170606A218D01306062481E2085608D8F
:100D90000138608562B686E7204641462A4600F063
:100DA00069FF00287FF415AF2068616A0069087048
:100DB000606A2268411C208D616201382085638D44
:100DC000013B638553695B077FF57AAF10696DE777
:100DD0002046394600224346009500F0F1FD0028E8
:100DE0007FF4F7AEEFF3108072B62068616A026894
:100DF00042F40072026000690870606A218D01305F
:100E00006062481E2085608D0138608562B64AE7C1
:100E1000202084F83D00002084F83E0000218AF85C
:100E2000001005B0BDE8F08F00202021206384F879
:100E30003D1084F83E00206C40F02000206462B633
:100E4000012000218AF8001005B0BDE8F08F0000F5
:100E50002DE9F04383B0994616460F460446FFF746
:100E6000A5FC94F83D10202920D10546206800BF3C
:100E70008169890716D5FFF799FC411B20681A295B
:100E8000F6D381698907F3D500202021206384F8F7
:100E90003D1084F83E00216C41F02001216484F86B
:100EA0003C0003E094F83C10012903D1022003B078
:100EB000BDE8F083012284F83C200368DDE90B18CB
:100EC0000A9ADB0703D1036843F001030360036858
:100ED00023F400630360212084F83D00402084F85F
:100EE0003E000020206462626185608D3946208565
:100EF0000020CFF6FF70E062204632464B46CDF828
:100F00000080019500F098FC20B1012003B0BDE8FD
:100F1000F08300BF208D98B9204641462A4600F054
:100F2000EFFC88B3206C0428EFD12068016841F4FD
:100F300000710160012003B0BDE8F0830004EBD034
:100F4000204641462A4600F0DDFE0028EAD1616ACB
:100F50002268084610F8013B1361238D6062581E19
:100F60002085678D013F678557697F07E6D50704B0
:100F7000E4D048781061881C6062981E2085618DDD
:100F800001396185DAE700BF2068016841F400712A
:100F90000160202084F83D00002084F83E0084F8A1
:100FA0003C0003B0BDE8F08310B586B0016845F29F
:100FB0000040C4F20000814202D006B010BD00BF64
:100FC00041F21804C4F20204216800F5384041F0EF
:100FD00008012160216801F0080102910299C021F5
:100FE000029112210391002104910321059102A98C
:100FF000FFF7D8FA606840F400106060606800F4A1
:1010000000100190019806B010BD000040F20000F1
:1010100040F27451C2F20000C2F2000100780A6886
:10102000104408607047000080B542F20000C4F22E
:101030000200016841F010010160032000F07AF81D
:101040000F2000F005F800F027F8002080BD000018
:1010500070B540F20006C2F2000640F2100132788C
:10106000C2F200014FF47A730968B3FBF2F204464E
:10107000B1FBF2F1084600F03BFB0F2C4FF00105ED
:1010800008D838B94FF0FF3021460022002500F083
:1010900025F87460284670BD82B041F21800C4F291
:1010A00002000168022241F001010160016801F0C3
:1010B000010101910199416841F08051416040680E
:1010C00000F08050009000980420C4F201000168F4
:1010D00062F31A61016002B07047000010B54EF66D
:1010E0000C5CCEF2000CDCF80030C3F3022E8EF064
:1010F0000704042C28BF0424BEF103034FF0FF3E75
:101100000EFA04F438BF0023A14399400EFA03F30A
:101110009A43114300F00F0200F160430901043AC1
:1011200003F564436244002848BF02F10C031970C0
:1011300010BD00004EF60C51CEF200010A684FF6C9
:10114000FF031A4060F30A2242F0806040F0FD7015
:10115000086070472DE9F04381B0002800F08580D9
:1011600042F20008C4F202080446D8F800000D4616
:1011700000F0070088420CD2D8F8000020F00700E9
:101180002843C8F80000D8F8000000F00700A84283
:101190006BD1206841F204098107C4F2020917D516
:1011A000410705D5D9F8001041F4E061C9F80010F5
:1011B000010705D5D9F8001041F46051C9F80010B5
:1011C000D9F80010A26821F0F0011143C9F800100D
:1011D000C00741D1D8F8000000F00700A8420CD9A0
:1011E000D8F8000020F007002843C8F80000D8F81D
:1011F000000000F00700A84237D12068410707D55A
:10120000D9F80010E26821F4E0611143C9F8001038
:10121000000708D5D9F80000216920F4605040EAA1
:10122000C100C9F80000D9F8002002F00C0008281D
:1012300041F20020C0F27A0050D144F26833C2F388
:101240008341C0F60003595CD2033BD440F6001042
:10125000C0F23D00484341E0606802280AD00128FE
:101260002AD159F8041C890308D4012001B0BDE833
:10127000F08300BF59F8041C8901F6D5D9F8001095
:1012800021F003010843C9F80000FFF78FFA064672
:1012900041F28837D9F80000616800F00C00B0EB2B
:1012A000810F97D0FFF782FA801BB842F2D9032052
:1012B00001B0BDE8F08300BF59F8041C8907D4D5FC
:1012C000DCE700BFD9F8002044F26633C2F34042A5
:1012D000C0F600039A5C4843B0FBF2F0D9F8001066
:1012E00043F6E232C1F30311C0F60002515C40F252
:1012F000100220FA01F140F20400C2F2000000687E
:10130000C2F200021160FFF7A3FE002001B0BDE8A9
:10131000F083000040F2100041F20401C2F200002C
:10132000C4F202010068096843F6F232C1F30221F7
:10133000C0F60002515CC840704700002DE9F04142
:1013400082B0002868D00446007841F20006C00749
:10135000C4F2020625D0706800F00C0004281BD0EF
:10136000706800F00C00082802D17068C00313D424
:101370006068002800F06881B0F5A02F00F07C8143
:10138000B0F5803F00F07C81306820F48030306020
:10139000306820F4802076E13068800301D56068F1
:1013A000D0B32078800718D5706810F00C0F07D0E4
:1013B000706800F00C0008286ED17068C0036BD410
:1013C0003068800702D52069012825D1306861691D
:1013D00020F0F80040EAC1003060207800071FD4F8
:1013E0002078400732D4E56995B1706800F00C00B0
:1013F000082840F08F80012D0ED07068216A00F41B
:1014000080328A4208D1616A00F47010884203D1A8
:10141000002002B0BDE8F081012002B0BDE8F081FB
:10142000A069002862D00020C4F242200121C0F847
:101430008014FFF7BBF90546706A800700F18C80C5
:10144000FFF7B4F9401B0228F6D92AE1F06910F041
:10145000805808D1F06940F08050F061F06900F0E8
:1014600080500090009847F20007C4F200073868E7
:10147000C00529D4386840F480703860FFF796F9C9
:10148000054600BF3868C0051ED4FFF78FF9401B22
:101490006428F7D905E100BF2069002840F2000068
:1014A000C4F2422000F0828001210160FFF77EF942
:1014B000054600BF306880073FF588AFFFF776F933
:1014C000401B0228F6D9ECE0E068002800F080809C
:1014D000052800F09780012800F09880306A20F0FD
:1014E00001003062306A20F0040092E00020C4F273
:1014F00042200021C0F88014FFF758F9054600BFCC
:10150000706A80077FF56CAFFFF750F9401B022827
:10151000F6D9C6E00027C4F2422700203866FFF75C
:1015200045F9022D05460BD13068800140F1BE809F
:10153000FFF73CF9401B02284FF00300F4D968E79D
:10154000306880017FF564AFFFF730F9401B022857
:101550004FF00300F4D95CE740F21000C2F2000043
:10156000006844F6D351C1F26201A0FB0101480AB0
:10157000019000BF00BF0198411E002801913FF477
:101580002FAF00BF0198411E002801913FF428AF02
:1015900000BF0198411E002801913FF421AF00BF18
:1015A0000198411E00280191E4D119E70021016052
:1015B000FFF7FCF8054600BF306880077FF50DAFE8
:1015C000FFF7F4F8401B02284FF00300F4D920E79E
:1015D000306A20F001003062306A20F0040030628E
:1015E000FFF7E4F8054641F2883700BF306A80070C
:1015F00020D5FFF7DBF8401BB8424FF00300F5D9C8
:1016000007E700BF306A40F004003062306A40F003
:1016100001003062FFF7CAF8054641F2883700BF83
:10162000306A800706D4FFF7C1F8401BB842F7D9EB
:1016300037E000BFB8F1000F7FF4D5AEF06920F0BD
:101640008050F061CFE600BF306820F48030306019
:10165000306820F480203060FFF7A8F8054600BF0E
:10166000306880037FF59DAEFFF7A0F8401B64282B
:101670004FF00300F4D9CCE6306840F480203060AD
:10168000306840F480303060FFF790F8054600BFC6
:10169000306880033FF585AEFFF788F8401B64286B
:1016A000F6D9032002B0BDE8F08100BF206AB0F592
:1016B000803F05D17168A26821F400311143716047
:1016C0007168626A21F4741111430843706001204B
:1016D0003866FFF76BF80446306880013FF598AE36
:1016E000FFF764F8001B02284FF00300F4D990E6DE
:1016F000411E0020B0EB116F1CBF012070474EF25D
:101700001002CEF2000251604EF62351CEF20001DB
:10171000F0230B700721906011607047FEE7000016
:101720002DE9F04782B0044600680E460168DDF8F6
:1017300028A041F4806101600168DDF82C9041F43B
:1017400080711D461746016020464FF001110022AE
:101750005346CDF8009000F033F958B12068006886
:10176000C00544BF4FF400702064032002B0BDE800
:10177000F08700BF40F202082068C0F2010806F0BE
:10178000FE0606612046414652464B4600F002FAEC
:1017900020B1012002B0BDE8F08700BF0020019019
:1017A00020684A464169019180695146019001983B
:1017B000204600F0A7FA98B92068012D08D0390A10
:1017C0000161204651464A4600F09CFA40B9206823
:1017D000F9B20161204651464A4600F093FA58B1E9
:1017E000206C0428D5D12068016841F400710160A3
:1017F000012002B0BDE8F08720680022016853464E
:1018000041F48071016020464FF00111CDF8009045
:1018100000F0D6F80028A1D1206846F0010101614E
:101820002046414652464B4600F0B4F9002818BF06
:10183000012002B0BDE8F0872DE9F04383B00446F3
:1018400000680D4601680A9F0B9E41F4807199461D
:101850009046016020464FF0011100223B46009661
:1018600000F0AEF850B120680068C00544BF4FF4E6
:1018700000702064032003B0BDE8F083206805F009
:10188000FE0101610221C0F2010120463A463346C1
:1018900000F080F920B1012003B0BDE8F08300BF63
:1018A00000200290206832464169029180693946E1
:1018B00002900298204600F025FA58B1206C0428C6
:1018C000E9D12068016841F400710160012003B092
:1018D000BDE8F0832068B9F1010F0AD04FEA182162
:1018E000016120463946324600F00CFA0028E5D165
:1018F00020685FFA88F10161002003B0BDE8F08341
:1019000070B50368044653F8140F400711D40E460F
:10191000481C29D086BB00BF1868400527D4FEF7B5
:1019200045FF236853F8140F400739D5186840075E
:10193000F2D5002070BD00BF18684007F9D41868C0
:10194000400514D418684007F3D4186840050ED435
:1019500018684007EDD41868400508D41868400797
:101960004FF0000048BF70BD18684005E4D56FF423
:1019700080601860042014E0154603E053F8140F4B
:101980004007D6D418684005F1D4FEF70FFF401B7E
:101990002368B042F2D958694007EFD4202000E014
:1019A000202000212022216384F83D2084F83E106D
:1019B000226C10432064012084F83C1070BD0000AC
:1019C0002DE9F041054600681E46144601F47F02E9
:1019D00001338FB242D0DDF81880B2F5803F40F07D
:1019E000878040693840C01BB0FA80F04009A042AF
:1019F00040F0C8804EB924E040693840C01BB0FABE
:101A000080F04009A04240F0BD80FEF7CFFEA0EB81
:101A100008012868B142EFD941693940C91BB1FAC0
:101A200081F14909A142E7D19BE000BF40693840FC
:101A3000C01BB0FA80F04009A0424FF0000040F017
:101A4000A680FEF7B3FE286841693940C91BB1FA88
:101A500081F14909A142E9D183E000BFB2F5803F9D
:101A600024D100BF41693940C91BB1FA81F149094C
:101A7000A14240F0878041693940C91BB1FA81F128
:101A80004909A14240F07E8041693940C91BB1FA41
:101A900081F14909A14275D141693940C91BB1FAA7
:101AA00081F14909A142DDD06CE000BF8169394074
:101AB000C91BB1FA81F14909A14263D18169394059
:101AC000C91BB1FA81F14909A1425BD18169394051
:101AD000C91BB1FA81F14909A14253D18169394049
:101AE000C91BB1FA81F14909A142DFD04AE000BF28
:101AF00080693840C01BB0FA80F04009A04241D153
:101B000046B923E080693840C01BB0FA80F0400934
:101B1000A0423BD1FEF74AFEA0EB08012868B14283
:101B2000F0D981693940C91BB1FA81F14909A14253
:101B3000E8D116E080693840C01BB0FA80F0400957
:101B4000A0424FF0000018BFBDE8F081FEF72EFE66
:101B5000286881693940C91BB1FA81F14909A1425C
:101B6000E8D100202021286385F83D1085F83E004B
:101B7000296C41F02001296485F83C000120BDE872
:101B8000F08100BF0020BDE8F08100BF0020BDE86B
:101B9000F0810000F0B581B0044600681D4643693D
:101BA0008FB203EA0701B94202D1002001B0F0BDB3
:101BB00041691646013201F4806125D0002940D1E7
:101BC000CEB100BFFEF7F2FD411B2068B14203D940
:101BD00041693940B9424BD141693940B942E4D0F9
:101BE00041694905EED52CE041693940B942DCD064
:101BF0004169490525D4FEF7D9FD2068416939407E
:101C0000B942F1D0202024E0D9B941693940B94224
:101C1000CBD04169490514D441693940B942C4D097
:101C2000416949050DD441693940B942BDD0416986
:101C3000490506D441693940B942B6D041694905E0
:101C4000E3D5016841F4007101606FF48061416186
:101C5000042000212022216384F83D2084F83E10D6
:101C6000226C1043206484F83C10012001B0F0BDC8
:101C70002020EEE770B504460068154650F8143F82
:101C80005A063DD40E4629B926E000BF50F8141F6D
:101C9000490635D40168C90621D4FEF787FD411BEA
:101CA0002068B142F2D941694906EFD400202021D1
:101CB000206384F83D1084F83E00206C40F0200042
:101CC00018E000BFFEF772FD206850F8141F4906A7
:101CD000ECD50168490613D40168C906F2D56FF046
:101CE0001001016000202021206384F83D1084F859
:101CF0003E00206C2064002084F83C00012070BD70
:101D0000002070BD70B50368044653F8140F000638
:101D100011D40E46481C29D086BB00BF1868400568
:101D200027D4FEF743FD236853F8140F000639D576
:101D300018680006F2D5002070BD00BF18680006C4
:101D4000F9D41868400514D418680006F3D418684C
:101D500040050ED418680006EDD41868400508D474
:101D6000186800064FF0000048BF70BD18684005B5
:101D7000E4D56FF480601860042014E0154603E099
:101D800053F8140F0006D6D418684005F1D4FEF7B6
:101D90000DFD401B2368B042F2D958690006EFD40C
:101DA000202000E0202000212022216384F83D2013
:101DB00084F83E10226C10432064012084F83C100B
:101DC00070BD00002DE9F04184B0044601260DF1FC
:101DD0000F006425CDE900062046D021752201239D
:101DE0000295FEF78FFE9DF80F00682832D14FF064
:101DF00000080DF10E072046D0216B2201238DF83B
:101E00000E80CDE900760295FFF722F807208DF8C5
:101E10000E002046D02119220123CDE9007602953B
:101E2000FFF716F82046D0211C2201238DF80E80E2
:101E3000CDE900760295FFF70BF82046D0211B2252
:101E400001238DF80E80CDE900760295FFF700F8AA
:101E50009DF80F0004B0BDE8F0810000F0B585B03A
:101E60000C4606210DF10E026426CDE90021D02199
:101E7000432201230296FEF745FEBDF80E00BDF891
:101E8000107001BA090C218439BABDF81260090C2E
:101E9000618431BA090CC0BAA18401F081F846F21C
:101EA0000005C4F2600500222B4600F01FFFC4E9C4
:101EB0000A01F8BA01F074F800222B4600F016FF70
:101EC000C4E90C01F0BA01F06BF800222B4600F0D7
:101ED0000DFFC4E90E0105B0F0BD0000FEE70000F3
:101EE000FEE700007047000080B540F22010C2F20B
:101EF00000004FF48061FEF734FABDE8804000F046
:101F000015BA000040F27802C2F2000250809180BF
:101F1000704700002DE9F04182B040F220544FF4A8
:101F20002E40C2F20004ADF806000A250DF10602AB
:101F30002046782102230095FEF7FAFC4FF4005862
:101F40000DF10602204678210223ADF806800095A7
:101F5000FEF7EEFC4FF480570DF106022046782183
:101F60000223ADF806700095FEF7E2FC4FF4304016
:101F7000ADF806000DF106022046782102230095F7
:101F8000FEF7D6FC4FF44840ADF806000DF106020E
:101F90002046782102230095FEF7CAFC00260DF1A9
:101FA0000602204678210223ADF806600095FEF770
:101FB000BFFC0DF10602204678210223ADF8067021
:101FC0000095FEF7B5FC4FF48040ADF806000DF12A
:101FD00006022046782102230095FEF7A9FC4FF463
:101FE0000140ADF806000DF10602204678210223DB
:101FF0000095FEF79DFC4FF47F40ADF806000DF113
:1020000006022046782102230095FEF791FC4FF44A
:102010002140ADF806000DF106022046782102238A
:102020000095FEF785FC4FF42640ADF806000DF153
:1020300006022046782102230095FEF779FC4FF432
:102040002840ADF806000DF1060220467821022353
:102050000095FEF76DFC4FF47C50ADF806000DF1D5
:1020600006022046782102230095FEF761FC4FF41A
:102070002440ADF806000DF1060220467821022327
:102080000095FEF755FC4FF45340ADF806000DF1F6
:1020900006022046782102230095FEF749FC0DF147
:1020A0000602204678210223ADF806600095FEF76F
:1020B0003FFC4FF45540ADF806000DF106022046F6
:1020C000782102230095FEF733FC4FF47040ADF801
:1020D00006000DF106022046782102230095FEF746
:1020E00027FC4FF45940ADF806000DF106022046DA
:1020F000782102230095FEF71BFC4FF40850ADF841
:1021000006000DF106022046782102230095FEF715
:102110000FFC4FF45A40ADF806000DF106022046C0
:10212000782102230095FEF703FC4FF49050ADF8A0
:1021300006000DF106022046782102230095FEF7E5
:10214000F7FB4FF45B40ADF806000DF106022046A8
:10215000782102230095FEF7EBFB0DF106022046E5
:1021600078210223ADF806800095FEF7E1FB4FF4DD
:102170000D40ADF806000DF106022046782102233D
:102180000095FEF7D5FB4FF4A050ADF806000DF119
:1021900006022046782102230095FEF7C9FB4FF482
:1021A0002F40ADF806000DF10602204678210223EB
:1021B0000095FEF7BDFB4FF43850ADF806000DF169
:1021C00006022046782102230095FEF7B1FB40F27B
:1021D0002010C2F200004FF48061FEF7C2F800F058
:1021E000A5F840F27801C2F200010120C1F80260B6
:1021F00002B0BDE8F08100002DE9F04F87B040F259
:102200007803C2F20003B3F802A00F7807EB0A06C6
:102210007F2E05D89E884D7803962E443F2E03D9F5
:10222000002007B0BDE8F08F002D00905AD0203874
:1022300001901878B2FA82F67309013AB2FA82F282
:102240000028069308BF530940F2201904934FF069
:1022500000063B46C2F2000918BF0120059003E0CA
:1022600000230136AE423DD2002BF9D003988419E9
:10227000A2B23F2AF5D801984A6805FB0060029691
:1022800032F810E004F00700012282404FF680701F
:10229000C0F20F0000EA041CD043002404E000BF99
:1022A0000F780134BC4219D20AEB0407BFB27F2F6A
:1022B000F6D867440EFA04F319F807B01B04049B20
:1022C0000BEA0008DDE9055658BF86EA0503002B36
:1022D00018BF4BEA020809F80780E1E74D78029E33
:1022E0003B46BEE7F8B240F278015044C2F200012A
:1022F00048805DF81C0BBDE8F08F000070B50378D6
:102300007BB114460D46461CD8B229462246FFF73B
:1023100073FF16F8011C884206D116F8013B002B0A
:10232000F2D1002070BD00BF084670BD2DE9F04F0E
:10233000C1B00DF1040B40F220560BF101094FF032
:1023400000086FF07F050A24C2F200064FF0000A71
:1023500040F220108035C2F200002F18AAF1500080
:102360008DF80500304678215A4602238DF8048006
:102370000094FEF7DDFA304678215A460223ADF884
:1023800004800094FEF7D4FA4FF48050ADF80400B6
:10239000304678215A4602230094FEF7C9FA4020BD
:1023A0008DF80400484639468022FDF795FF3046F7
:1023B00078215A4681230094FEF7BAFAB5F5607F7A
:1023C0000AF1010AC4D141B0BDE8F08F70470000A6
:1023D000FEF71CBE70470000FEE7000084B02DE948
:1023E000F04F83B00DF1300C40F2C00A8CE80700CA
:1023F00040F22050C2F2000ADDF89080C2F20000E4
:1024000051460F93FFF72AFDDAE90C01DAE90A5683
:1024100002460B4600F0DCFD07460C4628463146D6
:102420002A46334600F0D4FD3A46234600F0B6FB78
:102430000446DAE90E030D461946024600F0C8FDCF
:1024400022462B4600F0AAFB00F050FB00F074FB84
:1024500040F274590290C8F80400C2F20009D9F899
:10246000000000BFD9F80010091A32290ED8D9F897
:102470000010091A322909D8D9F80010091A32298E
:1024800004D8D9F80010091A3329EBD340F22050B0
:10249000C2F200005146FFF7E1FCDAE90C01DAE98B
:1024A0000A4502460B4600F093FD06460F462046BD
:1024B000294622462B4600F08BFD32463B4600F073
:1024C0006DFB0446DAE90E030D461946024600F09C
:1024D0007FFD22462B4600F061FB00F007FB00F079
:1024E0002BFB0190C8F80400D9F80000D9F80010BF
:1024F000091A32290ED8D9F80010091A322909D838
:10250000D9F80010091A322904D8D9F80010091A8C
:102510003329EBD340F22050C2F200005146FFF7BE
:102520009DFCDAE90C01DAE90A4502460B4600F0A7
:102530004FFD06460F462046294622462B4600F010
:1025400047FD32463B4600F029FB0446DAE90E031C
:102550000D461946024600F03BFD22462B4600F090
:102560001DFB00F0C3FA00F0E7FAC8F80400834648
:10257000D9F80000D9F80010091A32290ED8D9F874
:102580000010091A322909D8D9F80010091A32297D
:1025900004D8D9F80010091A3329EBD340F220509F
:1025A000C2F200005146FFF759FCDAE90C01DAE902
:1025B0000A4502460B4600F00BFD06460F46204634
:1025C000294622462B4600F003FD32463B4600F0EA
:1025D000E5FA0446DAE90E030D461946024600F014
:1025E000F7FC22462B4600F0D9FA00F07FFA00F003
:1025F000A3FAC8F804000546D9F80000D9F800107D
:10260000091A32290ED8D9F80010091A322909D826
:10261000D9F80010091A322904D8D9F80010091A7B
:102620003329EBD340F22050C2F200005146FFF7AD
:1026300015FCDAE90C01DAE90A4602460B4600F01D
:10264000C7FC07468846204631462246334600F0FE
:10265000BFFC3A46434600F0A1FA0446DAE90E030D
:102660000E461946024600F0B3FC2246334600F0FF
:1026700095FA00F03BFA00F05FFADDF8908004462E
:10268000C8F80400D9F80000D9F80010091A322956
:102690000ED8D9F80010091A322909D8D9F8001033
:1026A000091A322904D8D9F80010091A3329EBD3B2
:1026B0000299584601F020FA019F064628463946FD
:1026C00001F01AFA05462046594601F015FA04466B
:1026D0003046002100F0CCFF20B92846002100F050
:1026E000CEFF48B93046002100F0BBFF80B9284634
:1026F000002100F0BDFF58B90021C4F22021384666
:1027000000F0BDFF20B9D8F80C000130C8F80C006B
:102710002846002100F0ACFF20B92046002100F03F
:10272000AEFF48B92846002100F09BFF80B9204643
:10273000002100F09DFF58B90021C4F22021584625
:1027400000F09DFF20B9D8F80C000130C8F80C004B
:1027500003B0BDE8F04F04B070470000A6B0FEF72C
:1027600063FC00240120CDE92144CDE91F441C90E5
:1027700020904FF4E0104FF48031022525901CA8E2
:10278000CDE91D14CDE92351FEF7D8FD20B1EFF3BB
:10279000108072B6FEE700BF0F20CDE917054FF499
:1027A0008060CDE91A0417A802211994FEF7D2FC23
:1027B00020B1EFF3108072B6FEE700BF41F21800BF
:1027C000C4F20200016841F2100241F01001016000
:1027D000016840F60C4301F010011C911C9901683E
:1027E000C4F2010241F0200101600168C4F201035A
:1027F00001F020011C911C9901681CAC41F00401FE
:102800000160016840F6080901F004011C911C995F
:102810000168012741F0080101600068002600F00E
:1028200008001C901C984FF4005010601C904FF052
:10283000020803F57D702146C4F201091D971E961A
:10284000CDF87C80FDF7AEFE40F60005C4F2010530
:1028500028462146CDE91C761E97FDF7A3FE2846A3
:102860002146CDE91C861E97FDF79CFE0820CDE988
:102870001C0709F57E702146CDE91E68FDF792FE22
:1028800040F22050A5F53441C2F2000041F680220A
:102890004FF48043C0F2060280E84600C0E90363BB
:1028A000C0E90566C0E90766FDF786FF20B1EFF3D2
:1028B000108072B6FEE700BF40F22050C2F2000066
:1028C000FFF780FAFFF726FB40F2800BC2F2000B05
:1028D00040F2C00740F2745ACBF82C60CBF81C6071
:1028E0004FF07E50C2F20007C2F2000A02E000BFC1
:1028F000DBF8100007F12805169023CD07F1340806
:1029000098E8500100F018F9CBF804002846214659
:1029100000F012F9CBF808003046414600F00CF9FF
:10292000CBF80C0016984DF20A71C3F6234100F063
:1029300021FE4CF6CD41C3F6CC510446CBF8140031
:1029400000F018FE0146204600F0ACFE0146CBF830
:1029500018004FF07E5001F0CFF80146204600F0FD
:10296000FFFF0BF12001CBF810006846149107F12E
:102970001001502251F8043B043A40F8043BF9D1CD
:1029800097E80F00FFF72AFDD9F8000041F2100583
:1029900040F60C4640F21404C007C4F20105C4F22C
:1029A00001064FF00008C2F2000455D1208801282A
:1029B00052D14FF400502860FFF796FA32201E21C2
:1029C000FFF7A0FA47F253415846C7F26F0140F8AB
:1029D000301F40F20801C2F20001012280F8048099
:1029E000FFF78CFCFFF7A2FC208800BFD9F800108D
:1029F000C9071CBF00202080D9F8001001F0010198
:102A0000014325D03168CBF8001001F0080141EAFC
:102A1000014181F008017160DAF80010DAF8002055
:102A2000521AB2F5FA7FE1D8DAF80020521AB2F55C
:102A3000FA7FDBD8DAF80020521AB2F5FA7FD5D83F
:102A4000DAF80020521AB2F5FA7FE7D9CEE700BFD4
:102A500001202080FFF748FAD9F80000800703D44E
:102A6000FFF742FACBF82C8014201E21FFF74AFA18
:102A7000DBF82C200BF13004204619A1FDF7A8FB50
:102A800040F208012046C2F200010122FFF736FCA5
:102A9000FFF74CFCD6F80004CBF8000000F400501F
:102AA00040EA004080F400502860DAF8000000BFDF
:102AB000DAF80010091AC8293FF61AAFDAF8001040
:102AC000091AC8293FF614AFDAF80010091AC82904
:102AD0003FF60EAFDAF80010091AC929E8D307E764
:102AE00053746570733A3D20256400002DE9F04170
:102AF00006460F4600F06AFB041E0D4618BF012073
:102B0000284320F00040C0F17F6000F1E040C00F9A
:102B10000ED0301C18BF0120384320F00040C0F117
:102B20007F6000F1E040C00F04BF0120FDF748FCCA
:102B300020462946BDE8F08121F0004201F0004323
:102B4000A2F16052B2F5801F28BFD2F17F6C0BD981
:102B50005FEA001C43EAC20242EB507018BF7047A4
:102B600028BF20F001007047B2F5801FBCBF184697
:102B700070474FEA410C1CF5001F02D2084600F0D6
:102B8000B6BF70B500F0CEFA00000089FFF7F6BFBF
:102B90004FF00040A0F580007047000010B591EAAA
:102BA000030F48BF83F0004300F1FE83841A71EBEA
:102BB000030C05D2121943EB0C03001B61EB0C0153
:102BC0004FEA1154A4EB135CDFF81CE11EEA430F3B
:102BD00018BF9EEA445F00F0748021EA045123EAA2
:102BE0000E0343F48013DCF1200E32D322FA0CFEE4
:102BF00010EB0E0023FA0CFE41EB0E01CCF1200E7F
:102C000003FA0EFE10EB0E00CCF1200E51F1000184
:102C1000B1F5801F32D201EB045112FA0EF2BDE879
:102C2000104058BF7047401C38BF5FEA420218BFCF
:102C30007047002814BF20F0010041F100014FEA65
:102C4000410313F5001F38BF7047A1F1C04100F0E8
:102C5000B7BA012A43EB0302ACF1200CDCF11F0EE2
:102C600032BF4FF0000E23FA0CF310EB030041EBE0
:102C70000451B4EB115FD0D0A1EB045101F58011E8
:102C8000490801EB04515FEA30000ED350F1000017
:102C900038BF12FA0EFE08D1BDE81040C9E7401C4B
:102CA00038BF5FEA4202CAD1C3E7BDE810404FEA2D
:102CB000410313F5001F38BF7047A1F1C04100F078
:102CC0007FBA9EEA445F08D011EA5E0FBDE810406B
:102CD00004BF01F0004100207047BDE8104070B50E
:102CE00000F020FA64FBBE3E0000E0FF2DE9C04189
:102CF00030B4DFF8A4C23CEA111418BF3CEA131444
:102D000000F0ED801CEA111481EA030544EAD57451
:102D100018BF1CEA131500F0C880A4EB050404F1E9
:102D20007F7404F500344FF0004545EAC12145EABF
:102D3000C32341EA505143EA52534FEAC0204FEABD
:102D4000C222994208BF904200F09D804FEA13656D
:102D50000FF24416765D4FEA134506FB05F7C7F1FF
:102D6000807706FB07F74FEAD737A7FB0368764261
:102D7000A7FB06CEC8F5803838BFA8F1010807FBCD
:102D800008E6A6FB028C4FF0000EE6FB03CEDCF15A
:102D9000000CCEF1004E38BFAEF1010EA6FB0C5870
:102DA0004FF00007E6FB0E87A1FB08C6A0FB07CE8D
:102DB00016EB0E064FF0000545F10005E1FB076537
:102DC00015F1E04E7EBFA4F580345FEA46066D4102
:102DD00016F1800745F100054FEA172747EA056716
:102DE0004FEA15254FEA0666A6F1DE46B6F1805F8A
:102DF00020D9384605EBC47124F0010C01EB0C110D
:102E0000BCF1FE6F02D8F0BCBDE8008124425CBF7B
:102E100001F5801E9EEAC47F02D4F0BCBDE80081AB
:102E2000244200F13980A1F1C041F0BCBDE800416D
:102E300000F0C6B94FEAD02040EA41504FEAD12114
:102E40004FEAD22242EA43524FEAD323A7FB02863B
:102E500007FB036605FB02661EEA0E0F58BFA6EBD2
:102E60000056B6EB00564FEA520E4EEAC37E18EB00
:102E70000E0E56EB530EBCD518EB02085E417F1CBC
:102E800055F10005B5E74FF480154FF000074FF0FE
:102E900000064FF00008ACE701F1C04101F000412D
:102EA0004FF00000F0BCBDE800810CEA131511EAF8
:102EB0000C1F00D00CE013EA0C1F00F026804FF02E
:102EC000000081EA030101F00041F0BCBDE800818F
:102ED000F0BCBDE8004181EA030100F071B9F0BC2B
:102EE000BDE8004170B500F01DF900BF097EFC3E51
:102EF00000F007B84FF0000081EA030101F0004143
:102F0000704781EA030100F05BB9F0BCBDE8004105
:102F100022494FF000007047FFFDFBF9F7F5F4F28E
:102F2000F0EEEDEBE9E8E6E4E3E1E0DEDDDBDAD864
:102F3000D7D5D4D3D1D0CFCDCCCBCAC8C7C6C5C4C2
:102F4000C2C1C0BFBEBDBCBBBAB9B8B7B6B5B4B3D9
:102F5000B2B1B0AFAEADACABAAA9A8A8A7A6A5A4C4
:102F6000A3A3A2A1A09F9F9E9D9C9C9B9A99999888
:102F70009797969595949393929191908F8F8E8E2B
:102F80008D8C8C8B8B8A89898888878786858584B8
:102F900084838382828181800000FF070000F87FA4
:102FA00010F0004248BF4042B0FA80F310FA03F13B
:102FB0000AD0C3F11D0303F5806302EB03524FEA0D
:102FC000415002EBD12170474FF0000070470000E4
:102FD00070B5DFF848C11CEA111E1EBF1CEA1315AC
:102FE0009EEA0C0F95EA0C0F00F06F8081EA030453
:102FF0004EEAD47EAE4421EA4C1123EA4C1341F44C
:10300000801143F48013AEF17F7EA1FB024CA0FB44
:103010000365361955EB0C05A1FB034C4CF100037D
:10302000A0FB021C16EB0C06654153F1000309429C
:1030300018BF46F0010613F4007F0BD14FEA0331AD
:103040004FEA053041EA155140EA165034036FF05B
:1030500003020AE04FEAC3214FEAC52041EA555175
:1030600040EA5650F4026FF0020202EB2E4201EBEE
:10307000025585EACE710AD05FEA440C18BF24F0ED
:10308000004450F1000041F1000120EAD47040F208
:10309000FE7C624500D270BDA84214BF4FF0804450
:1030A0004FF04044002E08BF0024BEF1806FA8BF3F
:1030B000A1F1C041BDE8704080F2828001F1C041C1
:1030C00001F000414FF0000070470CEA13159EEA32
:1030D0000C0F18BF95EA0C0F06D081EA030E4FF0D3
:1030E00000000EF0004170BD00F01CF88900013EA8
:1030F00000F007B800F009B84FEA430C5FEA5C5CE7
:1031000008D081EA030100F05BB84FEA410C5FEAA6
:103110005C5CF6D102494FF0000070470000FF07E9
:103120000000F87F0EF1020E2EF0030E5EF8046B25
:10313000364205D4012A43EB030515F5001F12D8CA
:10314000012841EB010C1CF5001F0CD80ED14FEAF1
:10315000D17C0CEB4C0C0CF1020C15F5001F08BFD8
:103160004CEBD37C04E04FF0080C01E04FEAD37C39
:103170000CEB4C0526FA05F606F00706B6F1040C32
:1031800006D20EEB860CBDE870404CF0010C604797
:10319000DFE80CF0090B02024FF00041A1F500211D
:1031A0004FF0000070BD19461046012851EB010494
:1031B00018BFD4F5001484BF002001F0004170BD99
:1031C0000808A0F500114FEA310170472DE9F041E0
:1031D00001F5801CBCF5001FC0F2C3804FEA115CF2
:1031E00021EA0C5141F480110CF1FD0C5FEA5C0CFA
:1031F0000CF5C07C01D340004941890241EA90515D
:1032000087023BA48E0EA45D0A0C04FB04F602FBAD
:1032100006F6C6F14046A4FB0662F60D46EA4226D3
:1032200006FB06F4A4FB01235242C3F1404338BF1E
:103230005B1EA6FB02420024E6FB0324D20B42EAFB
:103240004446A6FB0623A1FB02E2A3FB07E4A41865
:103250004FF0000252F10002E3FB01426442C2F16E
:10326000404E38BFAEF1010EA6FB04234FF0000222
:10327000E6FB0E32A2FB0346B6194FF0000454F1F0
:103280000004E2FB0264A1FB06E6A4FB07E816EBE0
:1032900008064FF0000858F10008E4FB0168764288
:1032A000C8F1405838BFA8F10108A2FB06E4A3FB0F
:1032B00008E52D194FF0000454F10004E2FB085416
:1032C000A1FB05E6A7FB04E818EB06084FF0000693
:1032D00056F10006E1FB048618F1200556F10006C0
:1032E000A80940EA8660B109A8F11B0808F03F0868
:1032F000B8F10A0F1CD901EB0C51BDE8F08100BFF9
:10330000FCF5EEE8E2DDD8D3CFCBC7C3C0BDB9B67C
:10331000B4B1AEACA9A7A5A3A19F9D9B9A98969581
:103320009392908F8D8C8B89888786858483828108
:10333000A0FB006800FB01F208EB4208B8EB87280D
:1033400007D5341858EB0104D5D5401C51F10001C4
:10335000D1E7341A78EB0104CDD4401E71F100019D
:10336000C9E75FEA4C0C5FEA9C5C0DD105D301F024
:1033700000414FF00000BDE8F081BDE8F04170B5BC
:10338000FFF7D0FE6DDBFFBEBDE8F04101494FF015
:10339000000070470000F87F10B591EA030F48BFA6
:1033A00083F000433FF502AC841A71EB030C07D2A3
:1033B0008CF0004C121943EB0C03001B61EB0C0169
:1033C0004FEA1154A4EB135CDFF8A4E11EEA430FAB
:1033D00018BF9EEA445F00F0B48021EA045123EA5A
:1033E0006E035242C3EB6E0338BF5B1EDCF1200E4E
:1033F00025D322FA0CFE10EB0E0043FA0CFE41EB33
:103400000E01CCF1200E03FA0EFE10EB0E00CCF1F3
:10341000200E51F1000129D401EB045112FA0EF2F1
:10342000BDE8104058BF7047401C1CBFB2F1004FB0
:10343000704700280CBF491C20F00100704712EBB8
:10344000020E43EB030218BF4FF0010E4EEA420298
:10345000ACF1200CDCF11E0E56D943FA0CFE10EB39
:103460000E00CCF11E0E51F1FF31D5D50EF1010E3B
:1034700012FA0EFE404141EB010101EB445C5FEAB0
:103480005C5C10D901EB045110EBDE7038BFBEF16B
:10349000004FBDE8104018BF704700280CBF491C02
:1034A00020F00100704734D24FEAD42C24F4006499
:1034B00011F500111BD0B1FA81F20B3AA41AA41E27
:1034C000D2F12003914030FA03F31943904001EB0D
:1034D000CC7101EB0451002CBDE81040A8BF70472F
:1034E00001F1C04101F000414FF000007047B0FA17
:1034F00080F310FA03F102D1BDE810407047E41ADE
:10350000173C4805C90AE2E701EB0451BDE8104049
:10351000704749104FEA300001EB0451BDE81040FC
:1035200002E04FF0000170474A0008BF0042F8D0A7
:10353000B2F5001F28BF704701F000414FF00000B6
:1035400070479EEA445F07D011EA5E0FBDE8104065
:1035500004BF002100207047BDE8104070B5FFF7A0
:10356000E1FD00BF40DFF63E104683F000417047AA
:103570000000E0FF90EA010F48BF81F0004100F138
:10358000C282421A3CBF801A89184FEAD052A2EB7D
:10359000D1534FF07F4C1CEA410F18BF9CEA026FD9
:1035A00000F03B804FF0004C4CEA00204CEA012137
:1035B00021FA03FC10EB0C0C1ED202F1FF325FEA81
:1035C0001C2040EBC25038BF70471CF07F0F4FEA01
:1035D000400C18BFBCF17F4F38BF7047C3F12003C8
:1035E000994008BF20F00100BCF17F4F38BF704701
:1035F000A0F1C04000F07BBA4FEA3C00000A40EB6B
:10360000C25028BF1CF0FF0F4FEA400CE6D018BF95
:10361000BCF17F4F38BF7047EAE79CEA026F05D0E4
:1036200010EA5C0F08BF00F00040704710B500F0D2
:1036300018FA00BF64FBBE3E10B500F0F5F80CBFF1
:103640000120002010BD10B500F0EEF814BF0120DD
:10365000002010BD10B500F01BF98CBF0120002028
:1036600010BD10B500F014F92CBF0120002010BDD2
:1036700010B500F041F994BF0120002010BD10B535
:1036800000F03AF934BF0120002010BD401058BFAF
:10369000C0F14040491058BFC1F140418142EFF3B1
:1036A000008070474FF47F0C1CEAD0121EBF1CEA4A
:1036B000D11392EA0C0F93EA0C0F00F0858090EA88
:1036C000010F48BF42F4807240F4000C41F4000046
:1036D0002CF07F4120F07F4000B5A2EB0302814235
:1036E0000FF2081CACEB504E9EF800E0C0F1000059
:1036F0004FEA4E0E00FB0EFC38BF49004FEA2C1C6F
:103700000CFB0EF34FEACE1E0EEB635E4FEA112C5C
:103710000EFB0CFC4FEAC1214FEA1C5300FB0311C6
:1037200002F5FA024FEA112C0EFB0CFC4FEA0131B4
:103730004FEADC4C00FB0C1142EB2242C14228BF95
:1037400009184CEB03335DF804EB10EB410143EB3C
:10375000C250B2F57C0F38BF704729D512F0F00F78
:103760001CBF00F1C04000F0004070470081828320
:103770008485868788898B8C8D8E8F919293959680
:1037800097999A9C9D9FA0A2A3A5A7A8AAACAEB00A
:10379000B2B3B5B7B9BCBEC0C2C5C7C9CCCED1D40F
:1037A000D7D9DCDFE2E6E9ECF0F3F7FAFE0000003F
:1037B0004FEA400C0CF1807CBCF17E4F28BF704773
:1037C000B0F1C04000F093B90CEAD11390EA010FB8
:1037D00048BF42F48072624538BF634507D213F494
:1037E0007F0F16D080EA010000F00040704710B54E
:1037F00000F037F9097EFC3E00F005B880EA0100D0
:1038000000F00040704780EA010000F0004000F046
:103810006EB912F47F0F04BF0248704780EA0100BE
:1038200000F065B90000C07F50EA010C00F1138080
:103830001CF5000F58BFBCF5000F01D4884270473B
:1038400007D710F5000F58BF11F5000F15D48842A7
:103850007047894270471CF5000F04D5BCF5000F76
:10386000F7D5814270474FF0807C1CEB400F38BF8A
:103870001CEB410F01D28142704710B500F0F1F806
:10388000922449004FF000504FF08051FFF7FEBEE8
:1038900050EA010C00F113801CF5000F58BFBCF575
:1038A000000F01D48842704707D710F5000F58BFAA
:1038B00011F5000F15D488427047894270471CF5F6
:1038C000000F04D5BCF5000FF7D5814270474FF0CB
:1038D000807C1CEB400F38BF1CEB410F01D28142B2
:1038E000704710B500F0BDF8922449004FF08050A9
:1038F0004FF00051FFF7CABE50EA010C00F11380EF
:103900001CF5000F58BFBCF5000F01D4884270476A
:1039100007D710F5000F58BF11F5000F15D48842D6
:103920007047894270471CF5000F04D5BCF5000FA5
:10393000F7D5814270474FF0807C1CEB400F38BFB9
:103940001CEB410F01D28142704710B500F089F89D
:10395000922449004FF000504FF08051FFF796BE7F
:103960004FF47F0C1CEAD0121EBF1CEAD11392EA5E
:103970000C0F93EA0C0F00F0478090EA010F48BF4C
:1039800042F480724FF0004C4CEA00204CEA0121D6
:1039900002EB0302A0FB0113A2F50002002918BFED
:1039A00043F001035B0028BF4FEA330342EB22429E
:1039B0005FEA132C4CEBC2502EBFBCEB436FB2F549
:1039C0007C0F70474FEA036CBCF1004F08BF20F03A
:1039D0000100B2F57C0F38BF70470BD582F0FF02B3
:1039E00012F5803FC8BF704700F1C040D8BF00F05B
:1039F0000040704700F5000C5FEA4C0C48BF704770
:103A0000B0F1C04000F073B80CEAD11390EA010F96
:103A100048BF42F48072624538BF634504D280EAF1
:103A2000010000F00040704710B500F01AF800BF28
:103A30008900013E00F007B800F009B85FEA410CC8
:103A40005FEA1C6C08D080EA010000F050B85FEA21
:103A5000400C5FEA1C6CF6D14FF00040A0F58000EE
:103A600070470EF1020E2EF0030E5EF8044B244256
:103A700004D44FEA4102B2F17F4F11D84FEA40031C
:103A8000B3F17F4F0CD80ED14FEAD07C0CEB4C0C2D
:103A90000CF1020CB2F17F4F08BF4CEBD17C04E07B
:103AA0004FF0080C01E04FEAD17C0CEB4C0324FAF8
:103AB00003F404F00704B4F1040C06D20EEB840CFA
:103AC000BDE810404CF0010C6047DFE80CF007083F
:103AD00002024FF00040A0F5800010BD08464200F1
:103AE00018BFD2F1807288BF00F0004010BDFF21E6
:103AF00041EAD050C005704790EA010F48BF81F0FD
:103B000000413FF53EAD421A04D882F00042A0EBDE
:103B1000020011444FEAD052A2EBD1534FF07F4C38
:103B20001CEA410F18BF9CEA026F4AD04FF0004CCC
:103B30004CEA00204CEA012121FA03FCB0EB0C0C0A
:103B40000FD412F0FE0F36D05FEA4C001DD50012E4
:103B500040EBC25038BF70471CF03F0F18BF704792
:103B60000BE05FEA1C20A2F1010240EBC25038BF1B
:103B700070471CF07F0F18BF7047C3F120039940B6
:103B800014BF401E20F0010070474FEA1223800846
:103B900008BF7047B0FA80FCA2EB0C02CCF1280CF5
:103BA00060FA0CF093EA122F04BF00EBC25070478A
:103BB0004FEAC3707047130A5FEADC1008BF704712
:103BC000F6E79CEA026F04D010EA5C0F08BF002001
:103BD000704710B5FFF745FF40DFF63E81F000402B
:103BE0007047000000000000000001020304060707
:103BF00008090000000001020304000000000000AA
:103C000000000000000000000000000000000010A4
:103C10000010001000100010001000000010000044
:103C2000000000280028002800000000000000001C
:103C300000000000000000240024007C0024004854
:103C4000007C00480048000000000038005400508C
:103C50000038001400540054003800100000002008
:103C600000540058003000280054001400080000E0
:103C70000000001000280028001000340048004810
:103C800000340000000000100010001000000000D0
:103C900000000000000000000000000800100020EC
:103CA000002000200020002000200010000800203C
:103CB00000100008000800080008000800080010B4
:103CC0000020001000380010002800000000000054
:103CD0000000000000000000000000100010007C48
:103CE00000100010000000000000000000000000B4
:103CF0000000000000000000001000100010000094
:103D0000000000000000000000380000000000007B
:103D100000000000000000000000000000000000A3
:103D20000010000000000008000800100010001043
:103D30000010002000200000000000380044004473
:103D4000005400440044004400380000000000100B
:103D50000030005000100010001000100010000093
:103D60000000003800440044000400080010002057
:103D7000007C00000000003800440004001800042B
:103D8000000400440038000000000008001800286B
:103D900000280048007C0008000800000000007CAB
:103DA0000040004000780004000400440038000097
:103DB0000000003800440040007800440044004403
:103DC000003800000000007C000400080010001013
:103DD00000200020002000000000003800440044C3
:103DE000003800440044004400380000000000385F
:103DF000004400440044003C00040044003800003B
:103E000000000000000000100000000000000000A2
:103E10000010000000000000000000000010000082
:103E20000000000000100010001000000000000C56
:103E3000003000400030000C0000000000000000D6
:103E400000000000007C0000007C0000000000007A
:103E5000000000000000006000180004001800606E
:103E600000000000000000380044000400080010BA
:103E70000010000000100000000000380044004C5A
:103E80000054005C004000400038000000000010BA
:103E90000028002800280028007C0044004400007E
:103EA00000000078004400440078004400440044CE
:103EB000007800000000003800440040004000404E
:103EC000004000440038000000000070004800443A
:103ED0000044004400440048007000000000007CE2
:103EE00000400040007C004000400040007C00009A
:103EF0000000007C0040004000780040004000408E
:103F00000040000000000038004400400040005C19
:103F10000044004400380000000000440044004415
:103F2000007C0044004400440044000000000038CD
:103F300000100010001000100010001000380000E9
:103F40000000000400040004000400040004004415
:103F5000003800000000004400480050006000509D
:103F600000480048004400000000004000400040BD
:103F70000040004000400040007C00000000004481
:103F8000006C006C005400440044004400440000F5
:103F9000000000440064006400540054004C004CD5
:103FA0000044000000000038004400440044004485
:103FB0000044004400380000000000780044004441
:103FC000004400780040004000400000000000383D
:103FD00000440044004400440044005400380004FD
:103FE0000000007800440044004400780048004885
:103FF0000044000000000038004400400030000889
:1040000000040044003800000000007C0010001094
:10401000001000100010001000100000000000440C
:1040200000440044004400440044004400380000C0
:10403000000000440044004400280028002800102C
:1040400000100000000000440044005400540054DC
:10405000006C002800280000000000440028002810
:104060000010001000280028004400000000004458
:10407000004400280028001000100010001000006C
:104080000000007C00040008001000100020004028
:10409000007C00000000001800100010001000104C
:1040A0000010001000100010001800200020001068
:1040B0000010001000100008000800000000003090
:1040C0000010001000100010001000100010001070
:1040D000003000100028002800440000000000000C
:1040E00000000000000000000000000000000000D0
:1040F000000000000000000000FE00200010000092
:1041000000000000000000000000000000000000AF
:10411000000000380044003C0044004C0034000023
:104120000000004000400058006400440044006467
:10413000005800000000000000000038004400406B
:104140000040004400380000000000040004003477
:10415000004C00440044004C00340000000000000B
:10416000000000380044007C00400044003800009B
:104170000000000C0010007C001000100010001067
:10418000001000000000000000000034004C00445B
:104190000044004C00340004007800400040005807
:1041A000006400440044004400440000000000108B
:1041B000000000700010001000100010001000003F
:1041C000000000100000007000100010001000102F
:1041D0000010001000E00040004000480050006067
:1041E0000050004800440000000000700010001063
:1041F000001000100010001000100000000000006F
:104200000000007800540054005400540054000092
:104210000000000000000058006400440044004416
:10422000004400000000000000000038004400448A
:104230000044004400380000000000000000005866
:104240000064004400440064005800400040000046
:1042500000000034004C00440044004C00340004D2
:1042600000040000000000580064004000400040CE
:104270000040000000000000000000380044003052
:1042800000080044003800000000002000200078F2
:104290000020002000200020001800000000000086
:1042A00000000044004400440044004C003400007E
:1042B00000000000000000440044002800280028FE
:1042C00000100000000000000000005400540054E2
:1042D000006C0028002800000000000000000044DE
:1042E000002800100010002800440000000000001A
:1042F00000000044004400280028001000100010B6
:10430000006000000000007C000800100020004059
:10431000007C0000000000180010001000100020B9
:1043200000200010001000100018001000100010F5
:1043300000100010001000100010001000100030DD
:1043400000100010001000080008001000100010FD
:1043500000300000000000000074004C000000006D
:10436000000000000000010202030405060708091E
:104370000A0B0C0D0E0F10109843000800000020CF
:104380001800000028010008B043000818000020B1
:10439000600B000044010008010000001000000054
:1043A000070A0000FA3B00080024F40001000000A6
:04000005080000ED02
:00000001FF
